{
  "address": "0xf582272F57FdA552719C12889975eEf15a75ae3f",
  "abi": [
    {
      "inputs": [
        {
          "internalType": "address",
          "name": "priceFeedAddress",
          "type": "address"
        }
      ],
      "stateMutability": "nonpayable",
      "type": "constructor"
    },
    {
      "inputs": [],
      "name": "NotOwner",
      "type": "error"
    },
    {
      "stateMutability": "payable",
      "type": "fallback"
    },
    {
      "inputs": [],
      "name": "MINIMUM_USD",
      "outputs": [
        {
          "internalType": "uint256",
          "name": "",
          "type": "uint256"
        }
      ],
      "stateMutability": "view",
      "type": "function"
    },
    {
      "inputs": [
        {
          "internalType": "address",
          "name": "",
          "type": "address"
        }
      ],
      "name": "addressToAmountFunded",
      "outputs": [
        {
          "internalType": "uint256",
          "name": "",
          "type": "uint256"
        }
      ],
      "stateMutability": "view",
      "type": "function"
    },
    {
      "inputs": [],
      "name": "fund",
      "outputs": [],
      "stateMutability": "payable",
      "type": "function"
    },
    {
      "inputs": [
        {
          "internalType": "uint256",
          "name": "",
          "type": "uint256"
        }
      ],
      "name": "funders",
      "outputs": [
        {
          "internalType": "address",
          "name": "",
          "type": "address"
        }
      ],
      "stateMutability": "view",
      "type": "function"
    },
    {
      "inputs": [],
      "name": "getPriceFn",
      "outputs": [
        {
          "internalType": "uint256",
          "name": "",
          "type": "uint256"
        }
      ],
      "stateMutability": "view",
      "type": "function"
    },
    {
      "inputs": [],
      "name": "getVersionFn",
      "outputs": [
        {
          "internalType": "uint256",
          "name": "",
          "type": "uint256"
        }
      ],
      "stateMutability": "view",
      "type": "function"
    },
    {
      "inputs": [],
      "name": "owner",
      "outputs": [
        {
          "internalType": "address",
          "name": "",
          "type": "address"
        }
      ],
      "stateMutability": "view",
      "type": "function"
    },
    {
      "inputs": [],
      "name": "withDraw",
      "outputs": [],
      "stateMutability": "nonpayable",
      "type": "function"
    },
    {
      "stateMutability": "payable",
      "type": "receive"
    }
  ],
  "transactionHash": "0x9e2d02d21b912025fffc4114455cc5d1a07824cffce54bd517841d3eb19fbe47",
  "args": [
    "0x694AA1769357215DE4FAC081bf1f309aDC325306"
  ],
  "numDeployments": 1,
  "solcInputHash": "6cbfa1d3002cb8ea55ce702875cd39f2",
  "bytecode": "0x60a060405234801561001057600080fd5b506040516111aa3803806111aa8339818101604052810190610032919061010f565b3373ffffffffffffffffffffffffffffffffffffffff1660808173ffffffffffffffffffffffffffffffffffffffff1681525050806000806101000a81548173ffffffffffffffffffffffffffffffffffffffff021916908373ffffffffffffffffffffffffffffffffffffffff1602179055505061013c565b600080fd5b600073ffffffffffffffffffffffffffffffffffffffff82169050919050565b60006100dc826100b1565b9050919050565b6100ec816100d1565b81146100f757600080fd5b50565b600081519050610109816100e3565b92915050565b600060208284031215610125576101246100ac565b5b6000610133848285016100fa565b91505092915050565b60805161104c61015e60003960008181610319015261060f015261104c6000f3fe60806040526004361061007f5760003560e01c80638da5cb5b1161004e5780638da5cb5b14610142578063b60d42881461016d578063cd810aa014610177578063dc0d3dff146101a25761008e565b80630fdb1c101461009857806311ee3a48146100af5780633e47d6f3146100da5780636b69a592146101175761008e565b3661008e5761008c6101df565b005b6100966101df565b005b3480156100a457600080fd5b506100ad610317565b005b3480156100bb57600080fd5b506100c4610552565b6040516100d191906108bd565b60405180910390f35b3480156100e657600080fd5b5061010160048036038101906100fc919061093b565b6105e9565b60405161010e91906108bd565b60405180910390f35b34801561012357600080fd5b5061012c610601565b60405161013991906108bd565b60405180910390f35b34801561014e57600080fd5b5061015761060d565b6040516101649190610977565b60405180910390f35b6101756101df565b005b34801561018357600080fd5b5061018c610631565b60405161019991906108bd565b60405180910390f35b3480156101ae57600080fd5b506101c960048036038101906101c491906109be565b610661565b6040516101d69190610977565b60405180910390f35b671bc16d674ec8000061021b60008054906101000a900473ffffffffffffffffffffffffffffffffffffffff16346106a090919063ffffffff16565b101561025c576040517f08c379a000000000000000000000000000000000000000000000000000000000815260040161025390610a6e565b60405180910390fd5b6001339080600181540180825580915050600190039060005260206000200160009091909190916101000a81548173ffffffffffffffffffffffffffffffffffffffff021916908373ffffffffffffffffffffffffffffffffffffffff16021790555034600260003373ffffffffffffffffffffffffffffffffffffffff1673ffffffffffffffffffffffffffffffffffffffff168152602001908152602001600020600082825461030e9190610abd565b92505081905550565b7f000000000000000000000000000000000000000000000000000000000000000073ffffffffffffffffffffffffffffffffffffffff163373ffffffffffffffffffffffffffffffffffffffff161461039c576040517f30cd747100000000000000000000000000000000000000000000000000000000815260040160405180910390fd5b60005b600180549050811015610442576000600182815481106103c2576103c1610af1565b5b9060005260206000200160009054906101000a900473ffffffffffffffffffffffffffffffffffffffff1690506000600260008373ffffffffffffffffffffffffffffffffffffffff1673ffffffffffffffffffffffffffffffffffffffff1681526020019081526020016000208190555050808060010191505061039f565b50600067ffffffffffffffff81111561045e5761045d610b20565b5b60405190808252806020026020018201604052801561048c5781602001602082028036833780820191505090505b50600190805190602001906104a29291906107fd565b5060003373ffffffffffffffffffffffffffffffffffffffff16476040516104c990610b80565b60006040518083038185875af1925050503d8060008114610506576040519150601f19603f3d011682016040523d82523d6000602084013e61050b565b606091505b505090508061054f576040517f08c379a000000000000000000000000000000000000000000000000000000000815260040161054690610c07565b60405180910390fd5b50565b60008060009054906101000a900473ffffffffffffffffffffffffffffffffffffffff1673ffffffffffffffffffffffffffffffffffffffff166354fd4d506040518163ffffffff1660e01b8152600401602060405180830381865afa1580156105c0573d6000803e3d6000fd5b505050506040513d601f19601f820116820180604052508101906105e49190610c3c565b905090565b60026020528060005260406000206000915090505481565b671bc16d674ec8000081565b7f000000000000000000000000000000000000000000000000000000000000000081565b600061065c60008054906101000a900473ffffffffffffffffffffffffffffffffffffffff166106dc565b905090565b6001818154811061067157600080fd5b906000526020600020016000915054906101000a900473ffffffffffffffffffffffffffffffffffffffff1681565b6000806106ac836106dc565b90506000670de0b6b3a764000085836106c59190610c69565b6106cf9190610cda565b9050809250505092915050565b6000808273ffffffffffffffffffffffffffffffffffffffff1663feaf968c6040518163ffffffff1660e01b815260040160a060405180830381865afa15801561072a573d6000803e3d6000fd5b505050506040513d601f19601f8201168201806040525081019061074e9190610d83565b50505091505060008373ffffffffffffffffffffffffffffffffffffffff1663313ce5676040518163ffffffff1660e01b8152600401602060405180830381865afa1580156107a1573d6000803e3d6000fd5b505050506040513d601f19601f820116820180604052508101906107c59190610e37565b60ff16905060008160126107d99190610e64565b600a6107e59190610fcb565b836107f09190610c69565b9050809350505050919050565b828054828255906000526020600020908101928215610876579160200282015b828111156108755782518260006101000a81548173ffffffffffffffffffffffffffffffffffffffff021916908373ffffffffffffffffffffffffffffffffffffffff1602179055509160200191906001019061081d565b5b5090506108839190610887565b5090565b5b808211156108a0576000816000905550600101610888565b5090565b6000819050919050565b6108b7816108a4565b82525050565b60006020820190506108d260008301846108ae565b92915050565b600080fd5b600073ffffffffffffffffffffffffffffffffffffffff82169050919050565b6000610908826108dd565b9050919050565b610918816108fd565b811461092357600080fd5b50565b6000813590506109358161090f565b92915050565b600060208284031215610951576109506108d8565b5b600061095f84828501610926565b91505092915050565b610971816108fd565b82525050565b600060208201905061098c6000830184610968565b92915050565b61099b816108a4565b81146109a657600080fd5b50565b6000813590506109b881610992565b92915050565b6000602082840312156109d4576109d36108d8565b5b60006109e2848285016109a9565b91505092915050565b600082825260208201905092915050565b7f446f6573206e6f74206d65657420746865206d696e696d756d2055534420726560008201527f71756972656d656e740000000000000000000000000000000000000000000000602082015250565b6000610a586029836109eb565b9150610a63826109fc565b604082019050919050565b60006020820190508181036000830152610a8781610a4b565b9050919050565b7f4e487b7100000000000000000000000000000000000000000000000000000000600052601160045260246000fd5b6000610ac8826108a4565b9150610ad3836108a4565b9250828201905080821115610aeb57610aea610a8e565b5b92915050565b7f4e487b7100000000000000000000000000000000000000000000000000000000600052603260045260246000fd5b7f4e487b7100000000000000000000000000000000000000000000000000000000600052604160045260246000fd5b600081905092915050565b50565b6000610b6a600083610b4f565b9150610b7582610b5a565b600082019050919050565b6000610b8b82610b5d565b9150819050919050565b7f43616c6c206661696c6564207768696c65207769746864726177696e6720667560008201527f6e64730000000000000000000000000000000000000000000000000000000000602082015250565b6000610bf16023836109eb565b9150610bfc82610b95565b604082019050919050565b60006020820190508181036000830152610c2081610be4565b9050919050565b600081519050610c3681610992565b92915050565b600060208284031215610c5257610c516108d8565b5b6000610c6084828501610c27565b91505092915050565b6000610c74826108a4565b9150610c7f836108a4565b9250828202610c8d816108a4565b91508282048414831517610ca457610ca3610a8e565b5b5092915050565b7f4e487b7100000000000000000000000000000000000000000000000000000000600052601260045260246000fd5b6000610ce5826108a4565b9150610cf0836108a4565b925082610d0057610cff610cab565b5b828204905092915050565b600069ffffffffffffffffffff82169050919050565b610d2a81610d0b565b8114610d3557600080fd5b50565b600081519050610d4781610d21565b92915050565b6000819050919050565b610d6081610d4d565b8114610d6b57600080fd5b50565b600081519050610d7d81610d57565b92915050565b600080600080600060a08688031215610d9f57610d9e6108d8565b5b6000610dad88828901610d38565b9550506020610dbe88828901610d6e565b9450506040610dcf88828901610c27565b9350506060610de088828901610c27565b9250506080610df188828901610d38565b9150509295509295909350565b600060ff82169050919050565b610e1481610dfe565b8114610e1f57600080fd5b50565b600081519050610e3181610e0b565b92915050565b600060208284031215610e4d57610e4c6108d8565b5b6000610e5b84828501610e22565b91505092915050565b6000610e6f826108a4565b9150610e7a836108a4565b9250828203905081811115610e9257610e91610a8e565b5b92915050565b60008160011c9050919050565b6000808291508390505b6001851115610eef57808604811115610ecb57610eca610a8e565b5b6001851615610eda5780820291505b8081029050610ee885610e98565b9450610eaf565b94509492505050565b600082610f085760019050610fc4565b81610f165760009050610fc4565b8160018114610f2c5760028114610f3657610f65565b6001915050610fc4565b60ff841115610f4857610f47610a8e565b5b8360020a915084821115610f5f57610f5e610a8e565b5b50610fc4565b5060208310610133831016604e8410600b8410161715610f9a5782820a905083811115610f9557610f94610a8e565b5b610fc4565b610fa78484846001610ea5565b92509050818404811115610fbe57610fbd610a8e565b5b81810290505b9392505050565b6000610fd6826108a4565b9150610fe1836108a4565b925061100e7fffffffffffffffffffffffffffffffffffffffffffffffffffffffffffffffff8484610ef8565b90509291505056fea2646970667358221220da346b56604b7bdd42e67a6bd9eb20c05a71ecb028576b111a6d60a82ae9726064736f6c634300081e0033",
  "devdoc": {
    "kind": "dev",
    "methods": {},
    "version": 1
  },
  "userdoc": {
    "kind": "user",
    "methods": {},
    "version": 1
  },
  "storageLayout": {
    "storage": [
      {
        "astId": 328,
        "contract": "contracts/FundMe.sol:FundMe",
        "label": "priceFeed",
        "offset": 0,
        "slot": "0",
        "type": "t_contract(AggregatorV3Interface)104"
      },
      {
        "astId": 333,
        "contract": "contracts/FundMe.sol:FundMe",
        "label": "funders",
        "offset": 0,
        "slot": "1",
        "type": "t_array(t_address)dyn_storage"
      },
      {
        "astId": 337,
        "contract": "contracts/FundMe.sol:FundMe",
        "label": "addressToAmountFunded",
        "offset": 0,
        "slot": "2",
        "type": "t_mapping(t_address,t_uint256)"
      }
    ],
    "types": {
      "t_address": {
        "encoding": "inplace",
        "label": "address",
        "numberOfBytes": "20"
      },
      "t_array(t_address)dyn_storage": {
        "base": "t_address",
        "encoding": "dynamic_array",
        "label": "address[]",
        "numberOfBytes": "32"
      },
      "t_contract(AggregatorV3Interface)104": {
        "encoding": "inplace",
        "label": "contract AggregatorV3Interface",
        "numberOfBytes": "20"
      },
      "t_mapping(t_address,t_uint256)": {
        "encoding": "mapping",
        "key": "t_address",
        "label": "mapping(address => uint256)",
        "numberOfBytes": "32",
        "value": "t_uint256"
      },
      "t_uint256": {
        "encoding": "inplace",
        "label": "uint256",
        "numberOfBytes": "32"
      }
    }
  }
}