{
  "address": "0xe7f1725E7734CE288F8367e1Bb143E90bb3F0512",
  "abi": [
    {
      "inputs": [
        {
          "internalType": "address",
          "name": "priceFeedAddress",
          "type": "address"
        }
      ],
      "stateMutability": "nonpayable",
      "type": "constructor"
    },
    {
      "inputs": [],
      "name": "NotOwner",
      "type": "error"
    },
    {
      "stateMutability": "payable",
      "type": "fallback"
    },
    {
      "inputs": [],
      "name": "MINIMUM_USD",
      "outputs": [
        {
          "internalType": "uint256",
          "name": "",
          "type": "uint256"
        }
      ],
      "stateMutability": "view",
      "type": "function"
    },
    {
      "inputs": [
        {
          "internalType": "address",
          "name": "",
          "type": "address"
        }
      ],
      "name": "addressToAmountFunded",
      "outputs": [
        {
          "internalType": "uint256",
          "name": "",
          "type": "uint256"
        }
      ],
      "stateMutability": "view",
      "type": "function"
    },
    {
      "inputs": [],
      "name": "cheaperWithdraw",
      "outputs": [],
      "stateMutability": "nonpayable",
      "type": "function"
    },
    {
      "inputs": [],
      "name": "fund",
      "outputs": [],
      "stateMutability": "payable",
      "type": "function"
    },
    {
      "inputs": [
        {
          "internalType": "uint256",
          "name": "",
          "type": "uint256"
        }
      ],
      "name": "funders",
      "outputs": [
        {
          "internalType": "address",
          "name": "",
          "type": "address"
        }
      ],
      "stateMutability": "view",
      "type": "function"
    },
    {
      "inputs": [],
      "name": "getPriceFeed",
      "outputs": [
        {
          "internalType": "contract AggregatorV3Interface",
          "name": "",
          "type": "address"
        }
      ],
      "stateMutability": "view",
      "type": "function"
    },
    {
      "inputs": [],
      "name": "getPriceFn",
      "outputs": [
        {
          "internalType": "uint256",
          "name": "",
          "type": "uint256"
        }
      ],
      "stateMutability": "view",
      "type": "function"
    },
    {
      "inputs": [],
      "name": "getVersionFn",
      "outputs": [
        {
          "internalType": "uint256",
          "name": "",
          "type": "uint256"
        }
      ],
      "stateMutability": "view",
      "type": "function"
    },
    {
      "inputs": [],
      "name": "owner",
      "outputs": [
        {
          "internalType": "address",
          "name": "",
          "type": "address"
        }
      ],
      "stateMutability": "view",
      "type": "function"
    },
    {
      "inputs": [],
      "name": "withDraw",
      "outputs": [],
      "stateMutability": "nonpayable",
      "type": "function"
    },
    {
      "stateMutability": "payable",
      "type": "receive"
    }
  ],
  "transactionHash": "0x499c5323f7f7279805c8ce67be2e3260e6a7cbf254949d4858c42d0b34b08d64",
  "args": [
    "0x5FbDB2315678afecb367f032d93F642f64180aa3"
  ],
  "numDeployments": 1,
  "solcInputHash": "df773c31509e6a93df12041a03b92896",
  "bytecode": "0x60a060405234801561001057600080fd5b5060405161154b38038061154b8339818101604052810190610032919061010f565b3373ffffffffffffffffffffffffffffffffffffffff1660808173ffffffffffffffffffffffffffffffffffffffff1681525050806000806101000a81548173ffffffffffffffffffffffffffffffffffffffff021916908373ffffffffffffffffffffffffffffffffffffffff1602179055505061013c565b600080fd5b600073ffffffffffffffffffffffffffffffffffffffff82169050919050565b60006100dc826100b1565b9050919050565b6100ec816100d1565b81146100f757600080fd5b50565b600081519050610109816100e3565b92915050565b600060208284031215610125576101246100ac565b5b6000610133848285016100fa565b91505092915050565b6080516113e6610165600039600081816103710152818161066701526106b401526113e66000f3fe6080604052600436106100955760003560e01c80639e87a5cd116100595780639e87a5cd14610183578063b60d4288146101ae578063be2693f0146101b8578063cd810aa0146101cf578063dc0d3dff146101fa576100a4565b80630fdb1c10146100ae57806311ee3a48146100c55780633e47d6f3146100f05780636b69a5921461012d5780638da5cb5b14610158576100a4565b366100a4576100a2610237565b005b6100ac610237565b005b3480156100ba57600080fd5b506100c361036f565b005b3480156100d157600080fd5b506100da6105aa565b6040516100e79190610bdd565b60405180910390f35b3480156100fc57600080fd5b5061011760048036038101906101129190610c5b565b610641565b6040516101249190610bdd565b60405180910390f35b34801561013957600080fd5b50610142610659565b60405161014f9190610bdd565b60405180910390f35b34801561016457600080fd5b5061016d610665565b60405161017a9190610c97565b60405180910390f35b34801561018f57600080fd5b50610198610689565b6040516101a59190610d11565b60405180910390f35b6101b6610237565b005b3480156101c457600080fd5b506101cd6106b2565b005b3480156101db57600080fd5b506101e4610951565b6040516101f19190610bdd565b60405180910390f35b34801561020657600080fd5b50610221600480360381019061021c9190610d58565b610981565b60405161022e9190610c97565b60405180910390f35b671bc16d674ec8000061027360008054906101000a900473ffffffffffffffffffffffffffffffffffffffff16346109c090919063ffffffff16565b10156102b4576040517f08c379a00000000000000000000000000000000000000000000000000000000081526004016102ab90610e08565b60405180910390fd5b6001339080600181540180825580915050600190039060005260206000200160009091909190916101000a81548173ffffffffffffffffffffffffffffffffffffffff021916908373ffffffffffffffffffffffffffffffffffffffff16021790555034600260003373ffffffffffffffffffffffffffffffffffffffff1673ffffffffffffffffffffffffffffffffffffffff16815260200190815260200160002060008282546103669190610e57565b92505081905550565b7f000000000000000000000000000000000000000000000000000000000000000073ffffffffffffffffffffffffffffffffffffffff163373ffffffffffffffffffffffffffffffffffffffff16146103f4576040517f30cd747100000000000000000000000000000000000000000000000000000000815260040160405180910390fd5b60005b60018054905081101561049a5760006001828154811061041a57610419610e8b565b5b9060005260206000200160009054906101000a900473ffffffffffffffffffffffffffffffffffffffff1690506000600260008373ffffffffffffffffffffffffffffffffffffffff1673ffffffffffffffffffffffffffffffffffffffff168152602001908152602001600020819055505080806001019150506103f7565b50600067ffffffffffffffff8111156104b6576104b5610eba565b5b6040519080825280602002602001820160405280156104e45781602001602082028036833780820191505090505b50600190805190602001906104fa929190610b1d565b5060003373ffffffffffffffffffffffffffffffffffffffff164760405161052190610f1a565b60006040518083038185875af1925050503d806000811461055e576040519150601f19603f3d011682016040523d82523d6000602084013e610563565b606091505b50509050806105a7576040517f08c379a000000000000000000000000000000000000000000000000000000000815260040161059e90610fa1565b60405180910390fd5b50565b60008060009054906101000a900473ffffffffffffffffffffffffffffffffffffffff1673ffffffffffffffffffffffffffffffffffffffff166354fd4d506040518163ffffffff1660e01b8152600401602060405180830381865afa158015610618573d6000803e3d6000fd5b505050506040513d601f19601f8201168201806040525081019061063c9190610fd6565b905090565b60026020528060005260406000206000915090505481565b671bc16d674ec8000081565b7f000000000000000000000000000000000000000000000000000000000000000081565b60008060009054906101000a900473ffffffffffffffffffffffffffffffffffffffff16905090565b7f000000000000000000000000000000000000000000000000000000000000000073ffffffffffffffffffffffffffffffffffffffff163373ffffffffffffffffffffffffffffffffffffffff1614610737576040517f30cd747100000000000000000000000000000000000000000000000000000000815260040160405180910390fd5b600060018054806020026020016040519081016040528092919081815260200182805480156107bb57602002820191906000526020600020905b8160009054906101000a900473ffffffffffffffffffffffffffffffffffffffff1673ffffffffffffffffffffffffffffffffffffffff1681526020019060010190808311610771575b5050505050905060005b81518110156108405760008282815181106107e3576107e2610e8b565b5b602002602001015190506000600260008373ffffffffffffffffffffffffffffffffffffffff1673ffffffffffffffffffffffffffffffffffffffff168152602001908152602001600020819055505080806001019150506107c5565b50600067ffffffffffffffff81111561085c5761085b610eba565b5b60405190808252806020026020018201604052801561088a5781602001602082028036833780820191505090505b50600190805190602001906108a0929190610b1d565b5060003373ffffffffffffffffffffffffffffffffffffffff16476040516108c790610f1a565b60006040518083038185875af1925050503d8060008114610904576040519150601f19603f3d011682016040523d82523d6000602084013e610909565b606091505b505090508061094d576040517f08c379a000000000000000000000000000000000000000000000000000000000815260040161094490610fa1565b60405180910390fd5b5050565b600061097c60008054906101000a900473ffffffffffffffffffffffffffffffffffffffff166109fc565b905090565b6001818154811061099157600080fd5b906000526020600020016000915054906101000a900473ffffffffffffffffffffffffffffffffffffffff1681565b6000806109cc836109fc565b90506000670de0b6b3a764000085836109e59190611003565b6109ef9190611074565b9050809250505092915050565b6000808273ffffffffffffffffffffffffffffffffffffffff1663feaf968c6040518163ffffffff1660e01b815260040160a060405180830381865afa158015610a4a573d6000803e3d6000fd5b505050506040513d601f19601f82011682018060405250810190610a6e919061111d565b50505091505060008373ffffffffffffffffffffffffffffffffffffffff1663313ce5676040518163ffffffff1660e01b8152600401602060405180830381865afa158015610ac1573d6000803e3d6000fd5b505050506040513d601f19601f82011682018060405250810190610ae591906111d1565b60ff1690506000816012610af991906111fe565b600a610b059190611365565b83610b109190611003565b9050809350505050919050565b828054828255906000526020600020908101928215610b96579160200282015b82811115610b955782518260006101000a81548173ffffffffffffffffffffffffffffffffffffffff021916908373ffffffffffffffffffffffffffffffffffffffff16021790555091602001919060010190610b3d565b5b509050610ba39190610ba7565b5090565b5b80821115610bc0576000816000905550600101610ba8565b5090565b6000819050919050565b610bd781610bc4565b82525050565b6000602082019050610bf26000830184610bce565b92915050565b600080fd5b600073ffffffffffffffffffffffffffffffffffffffff82169050919050565b6000610c2882610bfd565b9050919050565b610c3881610c1d565b8114610c4357600080fd5b50565b600081359050610c5581610c2f565b92915050565b600060208284031215610c7157610c70610bf8565b5b6000610c7f84828501610c46565b91505092915050565b610c9181610c1d565b82525050565b6000602082019050610cac6000830184610c88565b92915050565b6000819050919050565b6000610cd7610cd2610ccd84610bfd565b610cb2565b610bfd565b9050919050565b6000610ce982610cbc565b9050919050565b6000610cfb82610cde565b9050919050565b610d0b81610cf0565b82525050565b6000602082019050610d266000830184610d02565b92915050565b610d3581610bc4565b8114610d4057600080fd5b50565b600081359050610d5281610d2c565b92915050565b600060208284031215610d6e57610d6d610bf8565b5b6000610d7c84828501610d43565b91505092915050565b600082825260208201905092915050565b7f446f6573206e6f74206d65657420746865206d696e696d756d2055534420726560008201527f71756972656d656e740000000000000000000000000000000000000000000000602082015250565b6000610df2602983610d85565b9150610dfd82610d96565b604082019050919050565b60006020820190508181036000830152610e2181610de5565b9050919050565b7f4e487b7100000000000000000000000000000000000000000000000000000000600052601160045260246000fd5b6000610e6282610bc4565b9150610e6d83610bc4565b9250828201905080821115610e8557610e84610e28565b5b92915050565b7f4e487b7100000000000000000000000000000000000000000000000000000000600052603260045260246000fd5b7f4e487b7100000000000000000000000000000000000000000000000000000000600052604160045260246000fd5b600081905092915050565b50565b6000610f04600083610ee9565b9150610f0f82610ef4565b600082019050919050565b6000610f2582610ef7565b9150819050919050565b7f43616c6c206661696c6564207768696c65207769746864726177696e6720667560008201527f6e64730000000000000000000000000000000000000000000000000000000000602082015250565b6000610f8b602383610d85565b9150610f9682610f2f565b604082019050919050565b60006020820190508181036000830152610fba81610f7e565b9050919050565b600081519050610fd081610d2c565b92915050565b600060208284031215610fec57610feb610bf8565b5b6000610ffa84828501610fc1565b91505092915050565b600061100e82610bc4565b915061101983610bc4565b925082820261102781610bc4565b9150828204841483151761103e5761103d610e28565b5b5092915050565b7f4e487b7100000000000000000000000000000000000000000000000000000000600052601260045260246000fd5b600061107f82610bc4565b915061108a83610bc4565b92508261109a57611099611045565b5b828204905092915050565b600069ffffffffffffffffffff82169050919050565b6110c4816110a5565b81146110cf57600080fd5b50565b6000815190506110e1816110bb565b92915050565b6000819050919050565b6110fa816110e7565b811461110557600080fd5b50565b600081519050611117816110f1565b92915050565b600080600080600060a0868803121561113957611138610bf8565b5b6000611147888289016110d2565b955050602061115888828901611108565b945050604061116988828901610fc1565b935050606061117a88828901610fc1565b925050608061118b888289016110d2565b9150509295509295909350565b600060ff82169050919050565b6111ae81611198565b81146111b957600080fd5b50565b6000815190506111cb816111a5565b92915050565b6000602082840312156111e7576111e6610bf8565b5b60006111f5848285016111bc565b91505092915050565b600061120982610bc4565b915061121483610bc4565b925082820390508181111561122c5761122b610e28565b5b92915050565b60008160011c9050919050565b6000808291508390505b60018511156112895780860481111561126557611264610e28565b5b60018516156112745780820291505b808102905061128285611232565b9450611249565b94509492505050565b6000826112a2576001905061135e565b816112b0576000905061135e565b81600181146112c657600281146112d0576112ff565b600191505061135e565b60ff8411156112e2576112e1610e28565b5b8360020a9150848211156112f9576112f8610e28565b5b5061135e565b5060208310610133831016604e8410600b84101617156113345782820a90508381111561132f5761132e610e28565b5b61135e565b611341848484600161123f565b9250905081840481111561135857611357610e28565b5b81810290505b9392505050565b600061137082610bc4565b915061137b83610bc4565b92506113a87fffffffffffffffffffffffffffffffffffffffffffffffffffffffffffffffff8484611292565b90509291505056fea26469706673582212209c2a94d87a6e2b56d4d5f3c10fe55e9173b1208a27cc5c8830f67502d8fd3f0264736f6c634300081e0033",
  "devdoc": {
    "kind": "dev",
    "methods": {},
    "version": 1
  },
  "userdoc": {
    "kind": "user",
    "methods": {},
    "version": 1
  },
  "storageLayout": {
    "storage": [
      {
        "astId": 63,
        "contract": "contracts/FundMe.sol:FundMe",
        "label": "priceFeed",
        "offset": 0,
        "slot": "0",
        "type": "t_contract(AggregatorV3Interface)45"
      },
      {
        "astId": 68,
        "contract": "contracts/FundMe.sol:FundMe",
        "label": "funders",
        "offset": 0,
        "slot": "1",
        "type": "t_array(t_address)dyn_storage"
      },
      {
        "astId": 72,
        "contract": "contracts/FundMe.sol:FundMe",
        "label": "addressToAmountFunded",
        "offset": 0,
        "slot": "2",
        "type": "t_mapping(t_address,t_uint256)"
      }
    ],
    "types": {
      "t_address": {
        "encoding": "inplace",
        "label": "address",
        "numberOfBytes": "20"
      },
      "t_array(t_address)dyn_storage": {
        "base": "t_address",
        "encoding": "dynamic_array",
        "label": "address[]",
        "numberOfBytes": "32"
      },
      "t_contract(AggregatorV3Interface)45": {
        "encoding": "inplace",
        "label": "contract AggregatorV3Interface",
        "numberOfBytes": "20"
      },
      "t_mapping(t_address,t_uint256)": {
        "encoding": "mapping",
        "key": "t_address",
        "label": "mapping(address => uint256)",
        "numberOfBytes": "32",
        "value": "t_uint256"
      },
      "t_uint256": {
        "encoding": "inplace",
        "label": "uint256",
        "numberOfBytes": "32"
      }
    }
  }
}