{
  "address": "0xCf7Ed3AccA5a467e9e704C703E8D87F634fB0Fc9",
  "abi": [
    {
      "inputs": [
        {
          "internalType": "address",
          "name": "vrfCoordinatorV2Plus",
          "type": "address"
        },
        {
          "internalType": "uint256",
          "name": "entranceFee",
          "type": "uint256"
        },
        {
          "internalType": "bytes32",
          "name": "gasLane",
          "type": "bytes32"
        },
        {
          "internalType": "uint256",
          "name": "subscriptionId",
          "type": "uint256"
        },
        {
          "internalType": "uint32",
          "name": "interval",
          "type": "uint32"
        },
        {
          "internalType": "bool",
          "name": "nativePayment",
          "type": "bool"
        }
      ],
      "stateMutability": "nonpayable",
      "type": "constructor"
    },
    {
      "inputs": [
        {
          "internalType": "address",
          "name": "have",
          "type": "address"
        },
        {
          "internalType": "address",
          "name": "want",
          "type": "address"
        }
      ],
      "name": "OnlyCoordinatorCanFulfill",
      "type": "error"
    },
    {
      "inputs": [
        {
          "internalType": "address",
          "name": "have",
          "type": "address"
        },
        {
          "internalType": "address",
          "name": "owner",
          "type": "address"
        },
        {
          "internalType": "address",
          "name": "coordinator",
          "type": "address"
        }
      ],
      "name": "OnlyOwnerOrCoordinator",
      "type": "error"
    },
    {
      "inputs": [],
      "name": "Raffle__NotEnoughETHEntered",
      "type": "error"
    },
    {
      "inputs": [],
      "name": "Raffle__NotOpen",
      "type": "error"
    },
    {
      "inputs": [],
      "name": "Raffle__TransferFailed",
      "type": "error"
    },
    {
      "inputs": [
        {
          "internalType": "uint256",
          "name": "currentState",
          "type": "uint256"
        },
        {
          "internalType": "uint256",
          "name": "numPlayers",
          "type": "uint256"
        },
        {
          "internalType": "uint256",
          "name": "contractBalance",
          "type": "uint256"
        }
      ],
      "name": "Raffle__UpKeepNotNeeded",
      "type": "error"
    },
    {
      "inputs": [],
      "name": "ZeroAddress",
      "type": "error"
    },
    {
      "anonymous": false,
      "inputs": [
        {
          "indexed": false,
          "internalType": "address",
          "name": "vrfCoordinator",
          "type": "address"
        }
      ],
      "name": "CoordinatorSet",
      "type": "event"
    },
    {
      "anonymous": false,
      "inputs": [
        {
          "indexed": true,
          "internalType": "address",
          "name": "from",
          "type": "address"
        },
        {
          "indexed": true,
          "internalType": "address",
          "name": "to",
          "type": "address"
        }
      ],
      "name": "OwnershipTransferRequested",
      "type": "event"
    },
    {
      "anonymous": false,
      "inputs": [
        {
          "indexed": true,
          "internalType": "address",
          "name": "from",
          "type": "address"
        },
        {
          "indexed": true,
          "internalType": "address",
          "name": "to",
          "type": "address"
        }
      ],
      "name": "OwnershipTransferred",
      "type": "event"
    },
    {
      "anonymous": false,
      "inputs": [
        {
          "indexed": true,
          "internalType": "address",
          "name": "player",
          "type": "address"
        }
      ],
      "name": "RaffleEnter",
      "type": "event"
    },
    {
      "anonymous": false,
      "inputs": [
        {
          "indexed": true,
          "internalType": "uint256",
          "name": "requestId",
          "type": "uint256"
        }
      ],
      "name": "RequestedRaffleWinner",
      "type": "event"
    },
    {
      "anonymous": false,
      "inputs": [
        {
          "indexed": true,
          "internalType": "address",
          "name": "winner",
          "type": "address"
        }
      ],
      "name": "WinnerPicked",
      "type": "event"
    },
    {
      "inputs": [],
      "name": "acceptOwnership",
      "outputs": [],
      "stateMutability": "nonpayable",
      "type": "function"
    },
    {
      "inputs": [
        {
          "internalType": "bytes",
          "name": "",
          "type": "bytes"
        }
      ],
      "name": "checkUpkeep",
      "outputs": [
        {
          "internalType": "bool",
          "name": "upkeepNeeded",
          "type": "bool"
        },
        {
          "internalType": "bytes",
          "name": "performData",
          "type": "bytes"
        }
      ],
      "stateMutability": "view",
      "type": "function"
    },
    {
      "inputs": [],
      "name": "enterRaffle",
      "outputs": [],
      "stateMutability": "payable",
      "type": "function"
    },
    {
      "inputs": [],
      "name": "getEntranceFee",
      "outputs": [
        {
          "internalType": "uint256",
          "name": "",
          "type": "uint256"
        }
      ],
      "stateMutability": "view",
      "type": "function"
    },
    {
      "inputs": [],
      "name": "getInterval",
      "outputs": [
        {
          "internalType": "uint256",
          "name": "",
          "type": "uint256"
        }
      ],
      "stateMutability": "view",
      "type": "function"
    },
    {
      "inputs": [],
      "name": "getLatestTimeStamp",
      "outputs": [
        {
          "internalType": "uint256",
          "name": "",
          "type": "uint256"
        }
      ],
      "stateMutability": "view",
      "type": "function"
    },
    {
      "inputs": [],
      "name": "getNumWords",
      "outputs": [
        {
          "internalType": "uint256",
          "name": "",
          "type": "uint256"
        }
      ],
      "stateMutability": "pure",
      "type": "function"
    },
    {
      "inputs": [],
      "name": "getNumberOfPlayer",
      "outputs": [
        {
          "internalType": "uint256",
          "name": "",
          "type": "uint256"
        }
      ],
      "stateMutability": "view",
      "type": "function"
    },
    {
      "inputs": [
        {
          "internalType": "uint256",
          "name": "playerIndex",
          "type": "uint256"
        }
      ],
      "name": "getPlayer",
      "outputs": [
        {
          "internalType": "address payable",
          "name": "",
          "type": "address"
        }
      ],
      "stateMutability": "view",
      "type": "function"
    },
    {
      "inputs": [],
      "name": "getRaffleState",
      "outputs": [
        {
          "internalType": "enum Raffle.RaffleState",
          "name": "",
          "type": "uint8"
        }
      ],
      "stateMutability": "view",
      "type": "function"
    },
    {
      "inputs": [],
      "name": "getRecentWinner",
      "outputs": [
        {
          "internalType": "address",
          "name": "",
          "type": "address"
        }
      ],
      "stateMutability": "view",
      "type": "function"
    },
    {
      "inputs": [],
      "name": "getRequestConfirmations",
      "outputs": [
        {
          "internalType": "uint256",
          "name": "",
          "type": "uint256"
        }
      ],
      "stateMutability": "pure",
      "type": "function"
    },
    {
      "inputs": [],
      "name": "owner",
      "outputs": [
        {
          "internalType": "address",
          "name": "",
          "type": "address"
        }
      ],
      "stateMutability": "view",
      "type": "function"
    },
    {
      "inputs": [
        {
          "internalType": "bytes",
          "name": "",
          "type": "bytes"
        }
      ],
      "name": "performUpkeep",
      "outputs": [],
      "stateMutability": "nonpayable",
      "type": "function"
    },
    {
      "inputs": [
        {
          "internalType": "uint256",
          "name": "requestId",
          "type": "uint256"
        },
        {
          "internalType": "uint256[]",
          "name": "randomWords",
          "type": "uint256[]"
        }
      ],
      "name": "rawFulfillRandomWords",
      "outputs": [],
      "stateMutability": "nonpayable",
      "type": "function"
    },
    {
      "inputs": [],
      "name": "s_vrfCoordinator",
      "outputs": [
        {
          "internalType": "contract IVRFCoordinatorV2Plus",
          "name": "",
          "type": "address"
        }
      ],
      "stateMutability": "view",
      "type": "function"
    },
    {
      "inputs": [
        {
          "internalType": "address",
          "name": "_vrfCoordinator",
          "type": "address"
        }
      ],
      "name": "setCoordinator",
      "outputs": [],
      "stateMutability": "nonpayable",
      "type": "function"
    },
    {
      "inputs": [
        {
          "internalType": "address",
          "name": "to",
          "type": "address"
        }
      ],
      "name": "transferOwnership",
      "outputs": [],
      "stateMutability": "nonpayable",
      "type": "function"
    }
  ],
  "transactionHash": "0x48cdf1d107aadb1ac4e748ab50f7b5390876068b80fabc83a00e2ef381869408",
  "args": [
    "0x5FbDB2315678afecb367f032d93F642f64180aa3",
    "10000000000000000",
    "0x474e34a077df58807dbe9c96d3c009b23b3c6d0cce433e59bbf5b34f823bc56c",
    "81424502139148838912311786095787158826725073569725263130415990871793107623596",
    "30",
    false
  ],
  "numDeployments": 1,
  "solcInputHash": "ebd81ead308313e9bb6ec2e61d5abd7c",
  "bytecode": "0x61010060405234801561001157600080fd5b50604051612927380380612927833981810160405281019061003391906104c1565b85338060008073ffffffffffffffffffffffffffffffffffffffff168273ffffffffffffffffffffffffffffffffffffffff16036100a6576040517f08c379a000000000000000000000000000000000000000000000000000000000815260040161009d906105ab565b60405180910390fd5b816000806101000a81548173ffffffffffffffffffffffffffffffffffffffff021916908373ffffffffffffffffffffffffffffffffffffffff160217905550600073ffffffffffffffffffffffffffffffffffffffff168173ffffffffffffffffffffffffffffffffffffffff161461012a576101298161025260201b60201c565b5b505050600073ffffffffffffffffffffffffffffffffffffffff168173ffffffffffffffffffffffffffffffffffffffff1603610193576040517fd92e233d00000000000000000000000000000000000000000000000000000000815260040160405180910390fd5b80600260006101000a81548173ffffffffffffffffffffffffffffffffffffffff021916908373ffffffffffffffffffffffffffffffffffffffff1602179055505084608081815250508360a081815250508260c081815250506000600460006101000a81548160ff02191690836001811115610213576102126105cb565b5b0217905550426005819055508163ffffffff1660e0818152505080600660146101000a81548160ff021916908315150217905550505050505050610666565b3373ffffffffffffffffffffffffffffffffffffffff168173ffffffffffffffffffffffffffffffffffffffff16036102c0576040517f08c379a00000000000000000000000000000000000000000000000000000000081526004016102b790610646565b60405180910390fd5b80600160006101000a81548173ffffffffffffffffffffffffffffffffffffffff021916908373ffffffffffffffffffffffffffffffffffffffff1602179055508073ffffffffffffffffffffffffffffffffffffffff1660008054906101000a900473ffffffffffffffffffffffffffffffffffffffff1673ffffffffffffffffffffffffffffffffffffffff167fed8889f560326eb138920d842192f0eb3dd22b4f139c87a2c57538e05bae127860405160405180910390a350565b600080fd5b600073ffffffffffffffffffffffffffffffffffffffff82169050919050565b60006103ae82610383565b9050919050565b6103be816103a3565b81146103c957600080fd5b50565b6000815190506103db816103b5565b92915050565b6000819050919050565b6103f4816103e1565b81146103ff57600080fd5b50565b600081519050610411816103eb565b92915050565b6000819050919050565b61042a81610417565b811461043557600080fd5b50565b60008151905061044781610421565b92915050565b600063ffffffff82169050919050565b6104668161044d565b811461047157600080fd5b50565b6000815190506104838161045d565b92915050565b60008115159050919050565b61049e81610489565b81146104a957600080fd5b50565b6000815190506104bb81610495565b92915050565b60008060008060008060c087890312156104de576104dd61037e565b5b60006104ec89828a016103cc565b96505060206104fd89828a01610402565b955050604061050e89828a01610438565b945050606061051f89828a01610402565b935050608061053089828a01610474565b92505060a061054189828a016104ac565b9150509295509295509295565b600082825260208201905092915050565b7f43616e6e6f7420736574206f776e657220746f207a65726f0000000000000000600082015250565b600061059560188361054e565b91506105a08261055f565b602082019050919050565b600060208201905081810360008301526105c481610588565b9050919050565b7f4e487b7100000000000000000000000000000000000000000000000000000000600052602160045260246000fd5b7f43616e6e6f74207472616e7366657220746f2073656c66000000000000000000600082015250565b600061063060178361054e565b915061063b826105fa565b602082019050919050565b6000602082019050818103600083015261065f81610623565b9050919050565b60805160a05160c05160e05161227a6106ad6000396000818161094b0152610e7c015260006107b9015260006107930152600081816104000152610503015261227a6000f3fe6080604052600436106101095760003560e01c80636e04ff0d1161009557806391ad27b41161006457806391ad27b4146103155780639eccacf614610340578063bd4d025c1461036b578063e55ae4e814610396578063f2fde38b146103d357610109565b80636e04ff0d1461026c57806379ba5097146102aa5780638da5cb5b146102c15780638ea98117146102ec57610109565b8063320229eb116100dc578063320229eb146101975780634585e33b146101c2578063473f1ddc146101eb57806353a2c19a146102165780635f1b0fd81461024157610109565b806309bc33a71461010e578063115cbaf5146101395780631fe543e3146101645780632cfcc5391461018d575b600080fd5b34801561011a57600080fd5b506101236103fc565b60405161013091906115fb565b60405180910390f35b34801561014557600080fd5b5061014e610424565b60405161015b919061168d565b60405180910390f35b34801561017057600080fd5b5061018b6004803603810190610186919061174d565b61043b565b005b610195610501565b005b3480156101a357600080fd5b506101ac610670565b6040516101b991906115fb565b60405180910390f35b3480156101ce57600080fd5b506101e960048036038101906101e49190611803565b61067a565b005b3480156101f757600080fd5b506102006108c3565b60405161020d9190611891565b60405180910390f35b34801561022257600080fd5b5061022b6108ed565b60405161023891906115fb565b60405180910390f35b34801561024d57600080fd5b506102566108fc565b60405161026391906115fb565b60405180910390f35b34801561027857600080fd5b50610293600480360381019061028e91906119ed565b610909565b6040516102a1929190611ad0565b60405180910390f35b3480156102b657600080fd5b506102bf610ad9565b005b3480156102cd57600080fd5b506102d6610c6e565b6040516102e39190611891565b60405180910390f35b3480156102f857600080fd5b50610313600480360381019061030e9190611b2c565b610c97565b005b34801561032157600080fd5b5061032a610e78565b60405161033791906115fb565b60405180910390f35b34801561034c57600080fd5b50610355610ea0565b6040516103629190611bb8565b60405180910390f35b34801561037757600080fd5b50610380610ec6565b60405161038d91906115fb565b60405180910390f35b3480156103a257600080fd5b506103bd60048036038101906103b89190611bd3565b610ed3565b6040516103ca9190611c21565b60405180910390f35b3480156103df57600080fd5b506103fa60048036038101906103f59190611b2c565b610f1b565b005b60007f0000000000000000000000000000000000000000000000000000000000000000905090565b6000600460009054906101000a900460ff16905090565b600260009054906101000a900473ffffffffffffffffffffffffffffffffffffffff1673ffffffffffffffffffffffffffffffffffffffff163373ffffffffffffffffffffffffffffffffffffffff16146104f15733600260009054906101000a900473ffffffffffffffffffffffffffffffffffffffff166040517f1cf993f40000000000000000000000000000000000000000000000000000000081526004016104e8929190611c3c565b60405180910390fd5b6104fc838383610f2f565b505050565b7f000000000000000000000000000000000000000000000000000000000000000034101561055b576040517fbd4e069500000000000000000000000000000000000000000000000000000000815260040160405180910390fd5b6000600181111561056f5761056e611616565b5b600460009054906101000a900460ff16600181111561059157610590611616565b5b146105c8576040517f1425571c00000000000000000000000000000000000000000000000000000000815260040160405180910390fd5b6003339080600181540180825580915050600190039060005260206000200160009091909190916101000a81548173ffffffffffffffffffffffffffffffffffffffff021916908373ffffffffffffffffffffffffffffffffffffffff1602179055503373ffffffffffffffffffffffffffffffffffffffff167f0805e1d667bddb8a95f0f09880cf94f403fb596ce79928d9f29b74203ba284d460405160405180910390a2565b6000600554905090565b600061069460405180602001604052806000815250610909565b5090508061070357600460009054906101000a900460ff1660018111156106be576106bd611616565b5b600380549050476040517f3a8d60860000000000000000000000000000000000000000000000000000000081526004016106fa93929190611c65565b60405180910390fd5b6001600460006101000a81548160ff0219169083600181111561072957610728611616565b5b0217905550610746600660149054906101000a900460ff16611162565b6000600260009054906101000a900473ffffffffffffffffffffffffffffffffffffffff1673ffffffffffffffffffffffffffffffffffffffff16639b1c385e6040518060c001604052807f000000000000000000000000000000000000000000000000000000000000000081526020017f00000000000000000000000000000000000000000000000000000000000000008152602001600361ffff168152602001622625a063ffffffff168152602001600163ffffffff16815260200161082c6040518060200160405280600660149054906101000a900460ff1615158152506111fb565b8152506040518263ffffffff1660e01b815260040161084b9190611dd3565b6020604051808303816000875af115801561086a573d6000803e3d6000fd5b505050506040513d601f19601f8201168201806040525081019061088e9190611e0a565b9050807fcd6e45c8998311cab7e9d4385596cac867e20a0587194b954fa3a731c93ce78b60405160405180910390a250505050565b6000600660009054906101000a900473ffffffffffffffffffffffffffffffffffffffff16905090565b6000600163ffffffff16905090565b6000600361ffff16905090565b60006060600080600181111561092257610921611616565b5b600460009054906101000a900460ff16600181111561094457610943611616565b5b14905060007f0000000000000000000000000000000000000000000000000000000000000000600554426109789190611e66565b119050600080600380549050119050600080471190506109cd6040518060400160405280600781526020017f69734f70656e3a0000000000000000000000000000000000000000000000000081525085611293565b610a0c6040518060400160405280600b81526020017f74696d655061737365643a00000000000000000000000000000000000000000081525084611293565b610a4b6040518060400160405280600b81526020017f686173506c61796572733a00000000000000000000000000000000000000000081525083611293565b610a8a6040518060400160405280600b81526020017f68617342616c616e63653a00000000000000000000000000000000000000000081525082611293565b838015610a945750815b8015610a9d5750805b8015610aa65750825b955083838383604051602001610abf9493929190611e9a565b604051602081830303815290604052945050505050915091565b600160009054906101000a900473ffffffffffffffffffffffffffffffffffffffff1673ffffffffffffffffffffffffffffffffffffffff163373ffffffffffffffffffffffffffffffffffffffff1614610b69576040517f08c379a0000000000000000000000000000000000000000000000000000000008152600401610b6090611f3c565b60405180910390fd5b60008060009054906101000a900473ffffffffffffffffffffffffffffffffffffffff169050336000806101000a81548173ffffffffffffffffffffffffffffffffffffffff021916908373ffffffffffffffffffffffffffffffffffffffff1602179055506000600160006101000a81548173ffffffffffffffffffffffffffffffffffffffff021916908373ffffffffffffffffffffffffffffffffffffffff1602179055503373ffffffffffffffffffffffffffffffffffffffff168173ffffffffffffffffffffffffffffffffffffffff167f8be0079c531659141344cd1fd0a4f28419497f9722a3daafe3b4186f6b6457e060405160405180910390a350565b60008060009054906101000a900473ffffffffffffffffffffffffffffffffffffffff16905090565b610c9f610c6e565b73ffffffffffffffffffffffffffffffffffffffff163373ffffffffffffffffffffffffffffffffffffffff1614158015610d285750600260009054906101000a900473ffffffffffffffffffffffffffffffffffffffff1673ffffffffffffffffffffffffffffffffffffffff163373ffffffffffffffffffffffffffffffffffffffff1614155b15610d975733610d36610c6e565b600260009054906101000a900473ffffffffffffffffffffffffffffffffffffffff166040517f061db9c1000000000000000000000000000000000000000000000000000000008152600401610d8e93929190611f5c565b60405180910390fd5b600073ffffffffffffffffffffffffffffffffffffffff168173ffffffffffffffffffffffffffffffffffffffff1603610dfd576040517fd92e233d00000000000000000000000000000000000000000000000000000000815260040160405180910390fd5b80600260006101000a81548173ffffffffffffffffffffffffffffffffffffffff021916908373ffffffffffffffffffffffffffffffffffffffff1602179055507fd1a6a14209a385a964d036e404cb5cfb71f4000cdb03c9366292430787261be681604051610e6d9190611891565b60405180910390a150565b60007f0000000000000000000000000000000000000000000000000000000000000000905090565b600260009054906101000a900473ffffffffffffffffffffffffffffffffffffffff1681565b6000600380549050905090565b600060038281548110610ee957610ee8611f93565b5b9060005260206000200160009054906101000a900473ffffffffffffffffffffffffffffffffffffffff169050919050565b610f2361132f565b610f2c816113bf565b50565b600060038054905083836000818110610f4b57610f4a611f93565b5b90506020020135610f5c9190611ff1565b9050600060038281548110610f7457610f73611f93565b5b9060005260206000200160009054906101000a900473ffffffffffffffffffffffffffffffffffffffff16905060008173ffffffffffffffffffffffffffffffffffffffff1647604051610fc790612053565b60006040518083038185875af1925050503d8060008114611004576040519150601f19603f3d011682016040523d82523d6000602084013e611009565b606091505b5050905080611044576040517fa1d04b3900000000000000000000000000000000000000000000000000000000815260040160405180910390fd5b6000600460006101000a81548160ff0219169083600181111561106a57611069611616565b5b0217905550600067ffffffffffffffff81111561108a576110896118c2565b5b6040519080825280602002602001820160405280156110b85781602001602082028036833780820191505090505b50600390805190602001906110ce929190611531565b5081600660006101000a81548173ffffffffffffffffffffffffffffffffffffffff021916908373ffffffffffffffffffffffffffffffffffffffff160217905550426005819055508173ffffffffffffffffffffffffffffffffffffffff167f5b690ec4a06fe979403046eaeea5b3ce38524683c3001f662c8b5a829632f7df60405160405180910390a2505050505050565b6111f8816040516024016111769190612068565b6040516020818303038152906040527f32458eed000000000000000000000000000000000000000000000000000000007bffffffffffffffffffffffffffffffffffffffffffffffffffffffff19166020820180517bffffffffffffffffffffffffffffffffffffffffffffffffffffffff83818316178352505050506114eb565b50565b60607f92fd13387c7fe7befbc38d303d6468778fb9731bc4583f17d92989c6fcfdeaaa8260405160240161122f91906120ae565b604051602081830303815290604052907bffffffffffffffffffffffffffffffffffffffffffffffffffffffff19166020820180517bffffffffffffffffffffffffffffffffffffffffffffffffffffffff83818316178352505050509050919050565b61132b82826040516024016112a992919061210d565b6040516020818303038152906040527fc3b55635000000000000000000000000000000000000000000000000000000007bffffffffffffffffffffffffffffffffffffffffffffffffffffffff19166020820180517bffffffffffffffffffffffffffffffffffffffffffffffffffffffff83818316178352505050506114eb565b5050565b60008054906101000a900473ffffffffffffffffffffffffffffffffffffffff1673ffffffffffffffffffffffffffffffffffffffff163373ffffffffffffffffffffffffffffffffffffffff16146113bd576040517f08c379a00000000000000000000000000000000000000000000000000000000081526004016113b490612189565b60405180910390fd5b565b3373ffffffffffffffffffffffffffffffffffffffff168173ffffffffffffffffffffffffffffffffffffffff160361142d576040517f08c379a0000000000000000000000000000000000000000000000000000000008152600401611424906121f5565b60405180910390fd5b80600160006101000a81548173ffffffffffffffffffffffffffffffffffffffff021916908373ffffffffffffffffffffffffffffffffffffffff1602179055508073ffffffffffffffffffffffffffffffffffffffff1660008054906101000a900473ffffffffffffffffffffffffffffffffffffffff1673ffffffffffffffffffffffffffffffffffffffff167fed8889f560326eb138920d842192f0eb3dd22b4f139c87a2c57538e05bae127860405160405180910390a350565b611502816114fa611505611526565b63ffffffff16565b50565b60006a636f6e736f6c652e6c6f679050600080835160208501845afa505050565b6115bb819050919050565b8280548282559060005260206000209081019282156115aa579160200282015b828111156115a95782518260006101000a81548173ffffffffffffffffffffffffffffffffffffffff021916908373ffffffffffffffffffffffffffffffffffffffff16021790555091602001919060010190611551565b5b5090506115b791906115c5565b5090565b6115c3612215565b565b5b808211156115de5760008160009055506001016115c6565b5090565b6000819050919050565b6115f5816115e2565b82525050565b600060208201905061161060008301846115ec565b92915050565b7f4e487b7100000000000000000000000000000000000000000000000000000000600052602160045260246000fd5b6002811061165657611655611616565b5b50565b600081905061166782611645565b919050565b600061167782611659565b9050919050565b6116878161166c565b82525050565b60006020820190506116a2600083018461167e565b92915050565b6000604051905090565b600080fd5b600080fd5b6116c5816115e2565b81146116d057600080fd5b50565b6000813590506116e2816116bc565b92915050565b600080fd5b600080fd5b600080fd5b60008083601f84011261170d5761170c6116e8565b5b8235905067ffffffffffffffff81111561172a576117296116ed565b5b602083019150836020820283011115611746576117456116f2565b5b9250929050565b600080600060408486031215611766576117656116b2565b5b6000611774868287016116d3565b935050602084013567ffffffffffffffff811115611795576117946116b7565b5b6117a1868287016116f7565b92509250509250925092565b60008083601f8401126117c3576117c26116e8565b5b8235905067ffffffffffffffff8111156117e0576117df6116ed565b5b6020830191508360018202830111156117fc576117fb6116f2565b5b9250929050565b6000806020838503121561181a576118196116b2565b5b600083013567ffffffffffffffff811115611838576118376116b7565b5b611844858286016117ad565b92509250509250929050565b600073ffffffffffffffffffffffffffffffffffffffff82169050919050565b600061187b82611850565b9050919050565b61188b81611870565b82525050565b60006020820190506118a66000830184611882565b92915050565b600080fd5b6000601f19601f8301169050919050565b7f4e487b7100000000000000000000000000000000000000000000000000000000600052604160045260246000fd5b6118fa826118b1565b810181811067ffffffffffffffff82111715611919576119186118c2565b5b80604052505050565b600061192c6116a8565b905061193882826118f1565b919050565b600067ffffffffffffffff821115611958576119576118c2565b5b611961826118b1565b9050602081019050919050565b82818337600083830152505050565b600061199061198b8461193d565b611922565b9050828152602081018484840111156119ac576119ab6118ac565b5b6119b784828561196e565b509392505050565b600082601f8301126119d4576119d36116e8565b5b81356119e484826020860161197d565b91505092915050565b600060208284031215611a0357611a026116b2565b5b600082013567ffffffffffffffff811115611a2157611a206116b7565b5b611a2d848285016119bf565b91505092915050565b60008115159050919050565b611a4b81611a36565b82525050565b600081519050919050565b600082825260208201905092915050565b60005b83811015611a8b578082015181840152602081019050611a70565b60008484015250505050565b6000611aa282611a51565b611aac8185611a5c565b9350611abc818560208601611a6d565b611ac5816118b1565b840191505092915050565b6000604082019050611ae56000830185611a42565b8181036020830152611af78184611a97565b90509392505050565b611b0981611870565b8114611b1457600080fd5b50565b600081359050611b2681611b00565b92915050565b600060208284031215611b4257611b416116b2565b5b6000611b5084828501611b17565b91505092915050565b6000819050919050565b6000611b7e611b79611b7484611850565b611b59565b611850565b9050919050565b6000611b9082611b63565b9050919050565b6000611ba282611b85565b9050919050565b611bb281611b97565b82525050565b6000602082019050611bcd6000830184611ba9565b92915050565b600060208284031215611be957611be86116b2565b5b6000611bf7848285016116d3565b91505092915050565b6000611c0b82611850565b9050919050565b611c1b81611c00565b82525050565b6000602082019050611c366000830184611c12565b92915050565b6000604082019050611c516000830185611882565b611c5e6020830184611882565b9392505050565b6000606082019050611c7a60008301866115ec565b611c8760208301856115ec565b611c9460408301846115ec565b949350505050565b6000819050919050565b611caf81611c9c565b82525050565b611cbe816115e2565b82525050565b600061ffff82169050919050565b611cdb81611cc4565b82525050565b600063ffffffff82169050919050565b611cfa81611ce1565b82525050565b600082825260208201905092915050565b6000611d1c82611a51565b611d268185611d00565b9350611d36818560208601611a6d565b611d3f816118b1565b840191505092915050565b600060c083016000830151611d626000860182611ca6565b506020830151611d756020860182611cb5565b506040830151611d886040860182611cd2565b506060830151611d9b6060860182611cf1565b506080830151611dae6080860182611cf1565b5060a083015184820360a0860152611dc68282611d11565b9150508091505092915050565b60006020820190508181036000830152611ded8184611d4a565b905092915050565b600081519050611e04816116bc565b92915050565b600060208284031215611e2057611e1f6116b2565b5b6000611e2e84828501611df5565b91505092915050565b7f4e487b7100000000000000000000000000000000000000000000000000000000600052601160045260246000fd5b6000611e71826115e2565b9150611e7c836115e2565b9250828203905081811115611e9457611e93611e37565b5b92915050565b6000608082019050611eaf6000830187611a42565b611ebc6020830186611a42565b611ec96040830185611a42565b611ed66060830184611a42565b95945050505050565b600082825260208201905092915050565b7f4d7573742062652070726f706f736564206f776e657200000000000000000000600082015250565b6000611f26601683611edf565b9150611f3182611ef0565b602082019050919050565b60006020820190508181036000830152611f5581611f19565b9050919050565b6000606082019050611f716000830186611882565b611f7e6020830185611882565b611f8b6040830184611882565b949350505050565b7f4e487b7100000000000000000000000000000000000000000000000000000000600052603260045260246000fd5b7f4e487b7100000000000000000000000000000000000000000000000000000000600052601260045260246000fd5b6000611ffc826115e2565b9150612007836115e2565b92508261201757612016611fc2565b5b828206905092915050565b600081905092915050565b50565b600061203d600083612022565b91506120488261202d565b600082019050919050565b600061205e82612030565b9150819050919050565b600060208201905061207d6000830184611a42565b92915050565b61208c81611a36565b82525050565b6020820160008201516120a86000850182612083565b50505050565b60006020820190506120c36000830184612092565b92915050565b600081519050919050565b60006120df826120c9565b6120e98185611edf565b93506120f9818560208601611a6d565b612102816118b1565b840191505092915050565b6000604082019050818103600083015261212781856120d4565b90506121366020830184611a42565b9392505050565b7f4f6e6c792063616c6c61626c65206279206f776e657200000000000000000000600082015250565b6000612173601683611edf565b915061217e8261213d565b602082019050919050565b600060208201905081810360008301526121a281612166565b9050919050565b7f43616e6e6f74207472616e7366657220746f2073656c66000000000000000000600082015250565b60006121df601783611edf565b91506121ea826121a9565b602082019050919050565b6000602082019050818103600083015261220e816121d2565b9050919050565b7f4e487b7100000000000000000000000000000000000000000000000000000000600052605160045260246000fdfea2646970667358221220af6ecf83e7f8823786ef56358472aa05b17f3a2cfb93a7fd95cc9780905d046b64736f6c634300081e0033",
  "devdoc": {
    "kind": "dev",
    "methods": {},
    "version": 1
  },
  "userdoc": {
    "kind": "user",
    "methods": {
      "acceptOwnership()": {
        "notice": "Allows an ownership transfer to be completed by the recipient."
      },
      "owner()": {
        "notice": "Get the current owner"
      },
      "setCoordinator(address)": {
        "notice": "Sets the VRF Coordinator addressThis method should only be callable by the coordinator or contract owner"
      },
      "transferOwnership(address)": {
        "notice": "Allows an owner to begin transferring ownership to a new address."
      }
    },
    "version": 1
  },
  "storageLayout": {
    "storage": [
      {
        "astId": 97,
        "contract": "contracts/Raffle.sol:Raffle",
        "label": "s_owner",
        "offset": 0,
        "slot": "0",
        "type": "t_address"
      },
      {
        "astId": 99,
        "contract": "contracts/Raffle.sol:Raffle",
        "label": "s_pendingOwner",
        "offset": 0,
        "slot": "1",
        "type": "t_address"
      },
      {
        "astId": 299,
        "contract": "contracts/Raffle.sol:Raffle",
        "label": "s_vrfCoordinator",
        "offset": 0,
        "slot": "2",
        "type": "t_contract(IVRFCoordinatorV2Plus)448"
      },
      {
        "astId": 626,
        "contract": "contracts/Raffle.sol:Raffle",
        "label": "s_players",
        "offset": 0,
        "slot": "3",
        "type": "t_array(t_address_payable)dyn_storage"
      },
      {
        "astId": 642,
        "contract": "contracts/Raffle.sol:Raffle",
        "label": "s_raffleState",
        "offset": 0,
        "slot": "4",
        "type": "t_enum(RaffleState)621"
      },
      {
        "astId": 644,
        "contract": "contracts/Raffle.sol:Raffle",
        "label": "s_lastTimeStamp",
        "offset": 0,
        "slot": "5",
        "type": "t_uint256"
      },
      {
        "astId": 648,
        "contract": "contracts/Raffle.sol:Raffle",
        "label": "s_recentWinner",
        "offset": 0,
        "slot": "6",
        "type": "t_address"
      },
      {
        "astId": 650,
        "contract": "contracts/Raffle.sol:Raffle",
        "label": "i_nativePayment",
        "offset": 20,
        "slot": "6",
        "type": "t_bool"
      }
    ],
    "types": {
      "t_address": {
        "encoding": "inplace",
        "label": "address",
        "numberOfBytes": "20"
      },
      "t_address_payable": {
        "encoding": "inplace",
        "label": "address payable",
        "numberOfBytes": "20"
      },
      "t_array(t_address_payable)dyn_storage": {
        "base": "t_address_payable",
        "encoding": "dynamic_array",
        "label": "address payable[]",
        "numberOfBytes": "32"
      },
      "t_bool": {
        "encoding": "inplace",
        "label": "bool",
        "numberOfBytes": "1"
      },
      "t_contract(IVRFCoordinatorV2Plus)448": {
        "encoding": "inplace",
        "label": "contract IVRFCoordinatorV2Plus",
        "numberOfBytes": "20"
      },
      "t_enum(RaffleState)621": {
        "encoding": "inplace",
        "label": "enum Raffle.RaffleState",
        "numberOfBytes": "1"
      },
      "t_uint256": {
        "encoding": "inplace",
        "label": "uint256",
        "numberOfBytes": "32"
      }
    }
  }
}