{
  "address": "0x96f11B7d4A1040DdD4b91e38e284f14E6e2451BB",
  "abi": [
    {
      "inputs": [
        {
          "internalType": "address",
          "name": "vrfCoordinatorV2Plus",
          "type": "address"
        },
        {
          "internalType": "uint256",
          "name": "entranceFee",
          "type": "uint256"
        },
        {
          "internalType": "bytes32",
          "name": "gasLane",
          "type": "bytes32"
        },
        {
          "internalType": "uint256",
          "name": "subscriptionId",
          "type": "uint256"
        },
        {
          "internalType": "uint32",
          "name": "interval",
          "type": "uint32"
        },
        {
          "internalType": "bool",
          "name": "nativePayment",
          "type": "bool"
        }
      ],
      "stateMutability": "nonpayable",
      "type": "constructor"
    },
    {
      "inputs": [
        {
          "internalType": "address",
          "name": "have",
          "type": "address"
        },
        {
          "internalType": "address",
          "name": "want",
          "type": "address"
        }
      ],
      "name": "OnlyCoordinatorCanFulfill",
      "type": "error"
    },
    {
      "inputs": [
        {
          "internalType": "address",
          "name": "have",
          "type": "address"
        },
        {
          "internalType": "address",
          "name": "owner",
          "type": "address"
        },
        {
          "internalType": "address",
          "name": "coordinator",
          "type": "address"
        }
      ],
      "name": "OnlyOwnerOrCoordinator",
      "type": "error"
    },
    {
      "inputs": [],
      "name": "Raffle__NotEnoughETHEntered",
      "type": "error"
    },
    {
      "inputs": [],
      "name": "Raffle__NotOpen",
      "type": "error"
    },
    {
      "inputs": [],
      "name": "Raffle__TransferFailed",
      "type": "error"
    },
    {
      "inputs": [
        {
          "internalType": "uint256",
          "name": "currentState",
          "type": "uint256"
        },
        {
          "internalType": "uint256",
          "name": "numPlayers",
          "type": "uint256"
        },
        {
          "internalType": "uint256",
          "name": "contractBalance",
          "type": "uint256"
        }
      ],
      "name": "Raffle__UpKeepNotNeeded",
      "type": "error"
    },
    {
      "inputs": [],
      "name": "ZeroAddress",
      "type": "error"
    },
    {
      "anonymous": false,
      "inputs": [
        {
          "indexed": false,
          "internalType": "address",
          "name": "vrfCoordinator",
          "type": "address"
        }
      ],
      "name": "CoordinatorSet",
      "type": "event"
    },
    {
      "anonymous": false,
      "inputs": [
        {
          "indexed": true,
          "internalType": "address",
          "name": "from",
          "type": "address"
        },
        {
          "indexed": true,
          "internalType": "address",
          "name": "to",
          "type": "address"
        }
      ],
      "name": "OwnershipTransferRequested",
      "type": "event"
    },
    {
      "anonymous": false,
      "inputs": [
        {
          "indexed": true,
          "internalType": "address",
          "name": "from",
          "type": "address"
        },
        {
          "indexed": true,
          "internalType": "address",
          "name": "to",
          "type": "address"
        }
      ],
      "name": "OwnershipTransferred",
      "type": "event"
    },
    {
      "anonymous": false,
      "inputs": [
        {
          "indexed": true,
          "internalType": "address",
          "name": "player",
          "type": "address"
        }
      ],
      "name": "RaffleEnter",
      "type": "event"
    },
    {
      "anonymous": false,
      "inputs": [
        {
          "indexed": true,
          "internalType": "uint256",
          "name": "requestId",
          "type": "uint256"
        }
      ],
      "name": "RequestedRaffleWinner",
      "type": "event"
    },
    {
      "anonymous": false,
      "inputs": [
        {
          "indexed": true,
          "internalType": "address",
          "name": "winner",
          "type": "address"
        }
      ],
      "name": "WinnerPicked",
      "type": "event"
    },
    {
      "inputs": [],
      "name": "acceptOwnership",
      "outputs": [],
      "stateMutability": "nonpayable",
      "type": "function"
    },
    {
      "inputs": [
        {
          "internalType": "bytes",
          "name": "",
          "type": "bytes"
        }
      ],
      "name": "checkUpkeep",
      "outputs": [
        {
          "internalType": "bool",
          "name": "upkeepNeeded",
          "type": "bool"
        },
        {
          "internalType": "bytes",
          "name": "",
          "type": "bytes"
        }
      ],
      "stateMutability": "nonpayable",
      "type": "function"
    },
    {
      "inputs": [],
      "name": "enterRaffle",
      "outputs": [],
      "stateMutability": "payable",
      "type": "function"
    },
    {
      "inputs": [],
      "name": "getEntranceFee",
      "outputs": [
        {
          "internalType": "uint256",
          "name": "",
          "type": "uint256"
        }
      ],
      "stateMutability": "view",
      "type": "function"
    },
    {
      "inputs": [],
      "name": "getInterval",
      "outputs": [
        {
          "internalType": "uint256",
          "name": "",
          "type": "uint256"
        }
      ],
      "stateMutability": "view",
      "type": "function"
    },
    {
      "inputs": [],
      "name": "getLatestTimeStamp",
      "outputs": [
        {
          "internalType": "uint256",
          "name": "",
          "type": "uint256"
        }
      ],
      "stateMutability": "view",
      "type": "function"
    },
    {
      "inputs": [],
      "name": "getNumWords",
      "outputs": [
        {
          "internalType": "uint256",
          "name": "",
          "type": "uint256"
        }
      ],
      "stateMutability": "pure",
      "type": "function"
    },
    {
      "inputs": [],
      "name": "getNumberOfPlayer",
      "outputs": [
        {
          "internalType": "uint256",
          "name": "",
          "type": "uint256"
        }
      ],
      "stateMutability": "view",
      "type": "function"
    },
    {
      "inputs": [
        {
          "internalType": "uint256",
          "name": "playerIndex",
          "type": "uint256"
        }
      ],
      "name": "getPlayer",
      "outputs": [
        {
          "internalType": "address payable",
          "name": "",
          "type": "address"
        }
      ],
      "stateMutability": "view",
      "type": "function"
    },
    {
      "inputs": [],
      "name": "getRaffleState",
      "outputs": [
        {
          "internalType": "enum Raffle.RaffleState",
          "name": "",
          "type": "uint8"
        }
      ],
      "stateMutability": "view",
      "type": "function"
    },
    {
      "inputs": [],
      "name": "getRecentWinner",
      "outputs": [
        {
          "internalType": "address",
          "name": "",
          "type": "address"
        }
      ],
      "stateMutability": "view",
      "type": "function"
    },
    {
      "inputs": [],
      "name": "getRequestConfirmations",
      "outputs": [
        {
          "internalType": "uint256",
          "name": "",
          "type": "uint256"
        }
      ],
      "stateMutability": "pure",
      "type": "function"
    },
    {
      "inputs": [],
      "name": "owner",
      "outputs": [
        {
          "internalType": "address",
          "name": "",
          "type": "address"
        }
      ],
      "stateMutability": "view",
      "type": "function"
    },
    {
      "inputs": [
        {
          "internalType": "bytes",
          "name": "",
          "type": "bytes"
        }
      ],
      "name": "performUpkeep",
      "outputs": [],
      "stateMutability": "nonpayable",
      "type": "function"
    },
    {
      "inputs": [
        {
          "internalType": "uint256",
          "name": "requestId",
          "type": "uint256"
        },
        {
          "internalType": "uint256[]",
          "name": "randomWords",
          "type": "uint256[]"
        }
      ],
      "name": "rawFulfillRandomWords",
      "outputs": [],
      "stateMutability": "nonpayable",
      "type": "function"
    },
    {
      "inputs": [],
      "name": "s_vrfCoordinator",
      "outputs": [
        {
          "internalType": "contract IVRFCoordinatorV2Plus",
          "name": "",
          "type": "address"
        }
      ],
      "stateMutability": "view",
      "type": "function"
    },
    {
      "inputs": [
        {
          "internalType": "address",
          "name": "_vrfCoordinator",
          "type": "address"
        }
      ],
      "name": "setCoordinator",
      "outputs": [],
      "stateMutability": "nonpayable",
      "type": "function"
    },
    {
      "inputs": [
        {
          "internalType": "address",
          "name": "to",
          "type": "address"
        }
      ],
      "name": "transferOwnership",
      "outputs": [],
      "stateMutability": "nonpayable",
      "type": "function"
    }
  ],
  "transactionHash": "0x1c2004978e69a30b4ea560a7c3e5456ce61ec330a749add68694bc8ecb828461",
  "args": [
    "0x9DdfaCa8183c41ad55329BdeeD9F6A8d53168B1B",
    "10000000000000000",
    "0x787d74caea10b2b357790d5b5247c2f63d1d91572a9846f780606e4d953677ae",
    "63772976271374006587194767746946307419895510220462230823869777527966976363795",
    "30",
    false
  ],
  "numDeployments": 6,
  "solcInputHash": "48ecd63f6fb8a0c6a0437198c97e8935",
  "bytecode": "0x61010060405234801561001157600080fd5b506040516126ae3803806126ae833981810160405281019061003391906104c1565b85338060008073ffffffffffffffffffffffffffffffffffffffff168273ffffffffffffffffffffffffffffffffffffffff16036100a6576040517f08c379a000000000000000000000000000000000000000000000000000000000815260040161009d906105ab565b60405180910390fd5b816000806101000a81548173ffffffffffffffffffffffffffffffffffffffff021916908373ffffffffffffffffffffffffffffffffffffffff160217905550600073ffffffffffffffffffffffffffffffffffffffff168173ffffffffffffffffffffffffffffffffffffffff161461012a576101298161025260201b60201c565b5b505050600073ffffffffffffffffffffffffffffffffffffffff168173ffffffffffffffffffffffffffffffffffffffff1603610193576040517fd92e233d00000000000000000000000000000000000000000000000000000000815260040160405180910390fd5b80600260006101000a81548173ffffffffffffffffffffffffffffffffffffffff021916908373ffffffffffffffffffffffffffffffffffffffff1602179055505084608081815250508360a081815250508260c081815250506000600460006101000a81548160ff02191690836001811115610213576102126105cb565b5b0217905550426005819055508163ffffffff1660e0818152505080600660146101000a81548160ff021916908315150217905550505050505050610666565b3373ffffffffffffffffffffffffffffffffffffffff168173ffffffffffffffffffffffffffffffffffffffff16036102c0576040517f08c379a00000000000000000000000000000000000000000000000000000000081526004016102b790610646565b60405180910390fd5b80600160006101000a81548173ffffffffffffffffffffffffffffffffffffffff021916908373ffffffffffffffffffffffffffffffffffffffff1602179055508073ffffffffffffffffffffffffffffffffffffffff1660008054906101000a900473ffffffffffffffffffffffffffffffffffffffff1673ffffffffffffffffffffffffffffffffffffffff167fed8889f560326eb138920d842192f0eb3dd22b4f139c87a2c57538e05bae127860405160405180910390a350565b600080fd5b600073ffffffffffffffffffffffffffffffffffffffff82169050919050565b60006103ae82610383565b9050919050565b6103be816103a3565b81146103c957600080fd5b50565b6000815190506103db816103b5565b92915050565b6000819050919050565b6103f4816103e1565b81146103ff57600080fd5b50565b600081519050610411816103eb565b92915050565b6000819050919050565b61042a81610417565b811461043557600080fd5b50565b60008151905061044781610421565b92915050565b600063ffffffff82169050919050565b6104668161044d565b811461047157600080fd5b50565b6000815190506104838161045d565b92915050565b60008115159050919050565b61049e81610489565b81146104a957600080fd5b50565b6000815190506104bb81610495565b92915050565b60008060008060008060c087890312156104de576104dd61037e565b5b60006104ec89828a016103cc565b96505060206104fd89828a01610402565b955050604061050e89828a01610438565b945050606061051f89828a01610402565b935050608061053089828a01610474565b92505060a061054189828a016104ac565b9150509295509295509295565b600082825260208201905092915050565b7f43616e6e6f7420736574206f776e657220746f207a65726f0000000000000000600082015250565b600061059560188361054e565b91506105a08261055f565b602082019050919050565b600060208201905081810360008301526105c481610588565b9050919050565b7f4e487b7100000000000000000000000000000000000000000000000000000000600052602160045260246000fd5b7f43616e6e6f74207472616e7366657220746f2073656c66000000000000000000600082015250565b600061063060178361054e565b915061063b826105fa565b602082019050919050565b6000602082019050818103600083015261065f81610623565b9050919050565b60805160a05160c05160e0516120016106ad6000396000818161094b0152610d58015260006107b901526000610793015260008181610400015261050301526120016000f3fe6080604052600436106101095760003560e01c80636e04ff0d1161009557806391ad27b41161006457806391ad27b4146103155780639eccacf614610340578063bd4d025c1461036b578063e55ae4e814610396578063f2fde38b146103d357610109565b80636e04ff0d1461026c57806379ba5097146102aa5780638da5cb5b146102c15780638ea98117146102ec57610109565b8063320229eb116100dc578063320229eb146101975780634585e33b146101c2578063473f1ddc146101eb57806353a2c19a146102165780635f1b0fd81461024157610109565b806309bc33a71461010e578063115cbaf5146101395780631fe543e3146101645780632cfcc5391461018d575b600080fd5b34801561011a57600080fd5b506101236103fc565b604051610130919061143b565b60405180910390f35b34801561014557600080fd5b5061014e610424565b60405161015b91906114cd565b60405180910390f35b34801561017057600080fd5b5061018b6004803603810190610186919061158d565b61043b565b005b610195610501565b005b3480156101a357600080fd5b506101ac610670565b6040516101b9919061143b565b60405180910390f35b3480156101ce57600080fd5b506101e960048036038101906101e49190611643565b61067a565b005b3480156101f757600080fd5b506102006108c3565b60405161020d91906116d1565b60405180910390f35b34801561022257600080fd5b5061022b6108ed565b604051610238919061143b565b60405180910390f35b34801561024d57600080fd5b506102566108fc565b604051610263919061143b565b60405180910390f35b34801561027857600080fd5b50610293600480360381019061028e919061182d565b610909565b6040516102a1929190611910565b60405180910390f35b3480156102b657600080fd5b506102bf6109b5565b005b3480156102cd57600080fd5b506102d6610b4a565b6040516102e391906116d1565b60405180910390f35b3480156102f857600080fd5b50610313600480360381019061030e919061196c565b610b73565b005b34801561032157600080fd5b5061032a610d54565b604051610337919061143b565b60405180910390f35b34801561034c57600080fd5b50610355610d7c565b60405161036291906119f8565b60405180910390f35b34801561037757600080fd5b50610380610da2565b60405161038d919061143b565b60405180910390f35b3480156103a257600080fd5b506103bd60048036038101906103b89190611a13565b610daf565b6040516103ca9190611a61565b60405180910390f35b3480156103df57600080fd5b506103fa60048036038101906103f5919061196c565b610df7565b005b60007f0000000000000000000000000000000000000000000000000000000000000000905090565b6000600460009054906101000a900460ff16905090565b600260009054906101000a900473ffffffffffffffffffffffffffffffffffffffff1673ffffffffffffffffffffffffffffffffffffffff163373ffffffffffffffffffffffffffffffffffffffff16146104f15733600260009054906101000a900473ffffffffffffffffffffffffffffffffffffffff166040517f1cf993f40000000000000000000000000000000000000000000000000000000081526004016104e8929190611a7c565b60405180910390fd5b6104fc838383610e0b565b505050565b7f000000000000000000000000000000000000000000000000000000000000000034101561055b576040517fbd4e069500000000000000000000000000000000000000000000000000000000815260040160405180910390fd5b6000600181111561056f5761056e611456565b5b600460009054906101000a900460ff16600181111561059157610590611456565b5b146105c8576040517f1425571c00000000000000000000000000000000000000000000000000000000815260040160405180910390fd5b6003339080600181540180825580915050600190039060005260206000200160009091909190916101000a81548173ffffffffffffffffffffffffffffffffffffffff021916908373ffffffffffffffffffffffffffffffffffffffff1602179055503373ffffffffffffffffffffffffffffffffffffffff167f0805e1d667bddb8a95f0f09880cf94f403fb596ce79928d9f29b74203ba284d460405160405180910390a2565b6000600554905090565b600061069460405180602001604052806000815250610909565b5090508061070357600460009054906101000a900460ff1660018111156106be576106bd611456565b5b600380549050476040517f3a8d60860000000000000000000000000000000000000000000000000000000081526004016106fa93929190611aa5565b60405180910390fd5b6001600460006101000a81548160ff0219169083600181111561072957610728611456565b5b0217905550610746600660149054906101000a900460ff1661103e565b6000600260009054906101000a900473ffffffffffffffffffffffffffffffffffffffff1673ffffffffffffffffffffffffffffffffffffffff16639b1c385e6040518060c001604052807f000000000000000000000000000000000000000000000000000000000000000081526020017f00000000000000000000000000000000000000000000000000000000000000008152602001600361ffff168152602001622625a063ffffffff168152602001600163ffffffff16815260200161082c6040518060200160405280600660149054906101000a900460ff1615158152506110d7565b8152506040518263ffffffff1660e01b815260040161084b9190611c13565b6020604051808303816000875af115801561086a573d6000803e3d6000fd5b505050506040513d601f19601f8201168201806040525081019061088e9190611c4a565b9050807fcd6e45c8998311cab7e9d4385596cac867e20a0587194b954fa3a731c93ce78b60405160405180910390a250505050565b6000600660009054906101000a900473ffffffffffffffffffffffffffffffffffffffff16905090565b6000600163ffffffff16905090565b6000600361ffff16905090565b60006060600080600181111561092257610921611456565b5b600460009054906101000a900460ff16600181111561094457610943611456565b5b14905060007f0000000000000000000000000000000000000000000000000000000000000000600554426109789190611ca6565b119050600080600380549050119050600080471190508380156109985750815b80156109a15750805b80156109aa5750825b955050505050915091565b600160009054906101000a900473ffffffffffffffffffffffffffffffffffffffff1673ffffffffffffffffffffffffffffffffffffffff163373ffffffffffffffffffffffffffffffffffffffff1614610a45576040517f08c379a0000000000000000000000000000000000000000000000000000000008152600401610a3c90611d37565b60405180910390fd5b60008060009054906101000a900473ffffffffffffffffffffffffffffffffffffffff169050336000806101000a81548173ffffffffffffffffffffffffffffffffffffffff021916908373ffffffffffffffffffffffffffffffffffffffff1602179055506000600160006101000a81548173ffffffffffffffffffffffffffffffffffffffff021916908373ffffffffffffffffffffffffffffffffffffffff1602179055503373ffffffffffffffffffffffffffffffffffffffff168173ffffffffffffffffffffffffffffffffffffffff167f8be0079c531659141344cd1fd0a4f28419497f9722a3daafe3b4186f6b6457e060405160405180910390a350565b60008060009054906101000a900473ffffffffffffffffffffffffffffffffffffffff16905090565b610b7b610b4a565b73ffffffffffffffffffffffffffffffffffffffff163373ffffffffffffffffffffffffffffffffffffffff1614158015610c045750600260009054906101000a900473ffffffffffffffffffffffffffffffffffffffff1673ffffffffffffffffffffffffffffffffffffffff163373ffffffffffffffffffffffffffffffffffffffff1614155b15610c735733610c12610b4a565b600260009054906101000a900473ffffffffffffffffffffffffffffffffffffffff166040517f061db9c1000000000000000000000000000000000000000000000000000000008152600401610c6a93929190611d57565b60405180910390fd5b600073ffffffffffffffffffffffffffffffffffffffff168173ffffffffffffffffffffffffffffffffffffffff1603610cd9576040517fd92e233d00000000000000000000000000000000000000000000000000000000815260040160405180910390fd5b80600260006101000a81548173ffffffffffffffffffffffffffffffffffffffff021916908373ffffffffffffffffffffffffffffffffffffffff1602179055507fd1a6a14209a385a964d036e404cb5cfb71f4000cdb03c9366292430787261be681604051610d4991906116d1565b60405180910390a150565b60007f0000000000000000000000000000000000000000000000000000000000000000905090565b600260009054906101000a900473ffffffffffffffffffffffffffffffffffffffff1681565b6000600380549050905090565b600060038281548110610dc557610dc4611d8e565b5b9060005260206000200160009054906101000a900473ffffffffffffffffffffffffffffffffffffffff169050919050565b610dff61116f565b610e08816111ff565b50565b600060038054905083836000818110610e2757610e26611d8e565b5b90506020020135610e389190611dec565b9050600060038281548110610e5057610e4f611d8e565b5b9060005260206000200160009054906101000a900473ffffffffffffffffffffffffffffffffffffffff16905060008173ffffffffffffffffffffffffffffffffffffffff1647604051610ea390611e4e565b60006040518083038185875af1925050503d8060008114610ee0576040519150601f19603f3d011682016040523d82523d6000602084013e610ee5565b606091505b5050905080610f20576040517fa1d04b3900000000000000000000000000000000000000000000000000000000815260040160405180910390fd5b6000600460006101000a81548160ff02191690836001811115610f4657610f45611456565b5b0217905550600067ffffffffffffffff811115610f6657610f65611702565b5b604051908082528060200260200182016040528015610f945781602001602082028036833780820191505090505b5060039080519060200190610faa929190611371565b5081600660006101000a81548173ffffffffffffffffffffffffffffffffffffffff021916908373ffffffffffffffffffffffffffffffffffffffff160217905550426005819055508173ffffffffffffffffffffffffffffffffffffffff167f5b690ec4a06fe979403046eaeea5b3ce38524683c3001f662c8b5a829632f7df60405160405180910390a2505050505050565b6110d4816040516024016110529190611e63565b6040516020818303038152906040527f32458eed000000000000000000000000000000000000000000000000000000007bffffffffffffffffffffffffffffffffffffffffffffffffffffffff19166020820180517bffffffffffffffffffffffffffffffffffffffffffffffffffffffff838183161783525050505061132b565b50565b60607f92fd13387c7fe7befbc38d303d6468778fb9731bc4583f17d92989c6fcfdeaaa8260405160240161110b9190611ea9565b604051602081830303815290604052907bffffffffffffffffffffffffffffffffffffffffffffffffffffffff19166020820180517bffffffffffffffffffffffffffffffffffffffffffffffffffffffff83818316178352505050509050919050565b60008054906101000a900473ffffffffffffffffffffffffffffffffffffffff1673ffffffffffffffffffffffffffffffffffffffff163373ffffffffffffffffffffffffffffffffffffffff16146111fd576040517f08c379a00000000000000000000000000000000000000000000000000000000081526004016111f490611f10565b60405180910390fd5b565b3373ffffffffffffffffffffffffffffffffffffffff168173ffffffffffffffffffffffffffffffffffffffff160361126d576040517f08c379a000000000000000000000000000000000000000000000000000000000815260040161126490611f7c565b60405180910390fd5b80600160006101000a81548173ffffffffffffffffffffffffffffffffffffffff021916908373ffffffffffffffffffffffffffffffffffffffff1602179055508073ffffffffffffffffffffffffffffffffffffffff1660008054906101000a900473ffffffffffffffffffffffffffffffffffffffff1673ffffffffffffffffffffffffffffffffffffffff167fed8889f560326eb138920d842192f0eb3dd22b4f139c87a2c57538e05bae127860405160405180910390a350565b6113428161133a611345611366565b63ffffffff16565b50565b60006a636f6e736f6c652e6c6f679050600080835160208501845afa505050565b6113fb819050919050565b8280548282559060005260206000209081019282156113ea579160200282015b828111156113e95782518260006101000a81548173ffffffffffffffffffffffffffffffffffffffff021916908373ffffffffffffffffffffffffffffffffffffffff16021790555091602001919060010190611391565b5b5090506113f79190611405565b5090565b611403611f9c565b565b5b8082111561141e576000816000905550600101611406565b5090565b6000819050919050565b61143581611422565b82525050565b6000602082019050611450600083018461142c565b92915050565b7f4e487b7100000000000000000000000000000000000000000000000000000000600052602160045260246000fd5b6002811061149657611495611456565b5b50565b60008190506114a782611485565b919050565b60006114b782611499565b9050919050565b6114c7816114ac565b82525050565b60006020820190506114e260008301846114be565b92915050565b6000604051905090565b600080fd5b600080fd5b61150581611422565b811461151057600080fd5b50565b600081359050611522816114fc565b92915050565b600080fd5b600080fd5b600080fd5b60008083601f84011261154d5761154c611528565b5b8235905067ffffffffffffffff81111561156a5761156961152d565b5b60208301915083602082028301111561158657611585611532565b5b9250929050565b6000806000604084860312156115a6576115a56114f2565b5b60006115b486828701611513565b935050602084013567ffffffffffffffff8111156115d5576115d46114f7565b5b6115e186828701611537565b92509250509250925092565b60008083601f84011261160357611602611528565b5b8235905067ffffffffffffffff8111156116205761161f61152d565b5b60208301915083600182028301111561163c5761163b611532565b5b9250929050565b6000806020838503121561165a576116596114f2565b5b600083013567ffffffffffffffff811115611678576116776114f7565b5b611684858286016115ed565b92509250509250929050565b600073ffffffffffffffffffffffffffffffffffffffff82169050919050565b60006116bb82611690565b9050919050565b6116cb816116b0565b82525050565b60006020820190506116e660008301846116c2565b92915050565b600080fd5b6000601f19601f8301169050919050565b7f4e487b7100000000000000000000000000000000000000000000000000000000600052604160045260246000fd5b61173a826116f1565b810181811067ffffffffffffffff8211171561175957611758611702565b5b80604052505050565b600061176c6114e8565b90506117788282611731565b919050565b600067ffffffffffffffff82111561179857611797611702565b5b6117a1826116f1565b9050602081019050919050565b82818337600083830152505050565b60006117d06117cb8461177d565b611762565b9050828152602081018484840111156117ec576117eb6116ec565b5b6117f78482856117ae565b509392505050565b600082601f83011261181457611813611528565b5b81356118248482602086016117bd565b91505092915050565b600060208284031215611843576118426114f2565b5b600082013567ffffffffffffffff811115611861576118606114f7565b5b61186d848285016117ff565b91505092915050565b60008115159050919050565b61188b81611876565b82525050565b600081519050919050565b600082825260208201905092915050565b60005b838110156118cb5780820151818401526020810190506118b0565b60008484015250505050565b60006118e282611891565b6118ec818561189c565b93506118fc8185602086016118ad565b611905816116f1565b840191505092915050565b60006040820190506119256000830185611882565b818103602083015261193781846118d7565b90509392505050565b611949816116b0565b811461195457600080fd5b50565b60008135905061196681611940565b92915050565b600060208284031215611982576119816114f2565b5b600061199084828501611957565b91505092915050565b6000819050919050565b60006119be6119b96119b484611690565b611999565b611690565b9050919050565b60006119d0826119a3565b9050919050565b60006119e2826119c5565b9050919050565b6119f2816119d7565b82525050565b6000602082019050611a0d60008301846119e9565b92915050565b600060208284031215611a2957611a286114f2565b5b6000611a3784828501611513565b91505092915050565b6000611a4b82611690565b9050919050565b611a5b81611a40565b82525050565b6000602082019050611a766000830184611a52565b92915050565b6000604082019050611a9160008301856116c2565b611a9e60208301846116c2565b9392505050565b6000606082019050611aba600083018661142c565b611ac7602083018561142c565b611ad4604083018461142c565b949350505050565b6000819050919050565b611aef81611adc565b82525050565b611afe81611422565b82525050565b600061ffff82169050919050565b611b1b81611b04565b82525050565b600063ffffffff82169050919050565b611b3a81611b21565b82525050565b600082825260208201905092915050565b6000611b5c82611891565b611b668185611b40565b9350611b768185602086016118ad565b611b7f816116f1565b840191505092915050565b600060c083016000830151611ba26000860182611ae6565b506020830151611bb56020860182611af5565b506040830151611bc86040860182611b12565b506060830151611bdb6060860182611b31565b506080830151611bee6080860182611b31565b5060a083015184820360a0860152611c068282611b51565b9150508091505092915050565b60006020820190508181036000830152611c2d8184611b8a565b905092915050565b600081519050611c44816114fc565b92915050565b600060208284031215611c6057611c5f6114f2565b5b6000611c6e84828501611c35565b91505092915050565b7f4e487b7100000000000000000000000000000000000000000000000000000000600052601160045260246000fd5b6000611cb182611422565b9150611cbc83611422565b9250828203905081811115611cd457611cd3611c77565b5b92915050565b600082825260208201905092915050565b7f4d7573742062652070726f706f736564206f776e657200000000000000000000600082015250565b6000611d21601683611cda565b9150611d2c82611ceb565b602082019050919050565b60006020820190508181036000830152611d5081611d14565b9050919050565b6000606082019050611d6c60008301866116c2565b611d7960208301856116c2565b611d8660408301846116c2565b949350505050565b7f4e487b7100000000000000000000000000000000000000000000000000000000600052603260045260246000fd5b7f4e487b7100000000000000000000000000000000000000000000000000000000600052601260045260246000fd5b6000611df782611422565b9150611e0283611422565b925082611e1257611e11611dbd565b5b828206905092915050565b600081905092915050565b50565b6000611e38600083611e1d565b9150611e4382611e28565b600082019050919050565b6000611e5982611e2b565b9150819050919050565b6000602082019050611e786000830184611882565b92915050565b611e8781611876565b82525050565b602082016000820151611ea36000850182611e7e565b50505050565b6000602082019050611ebe6000830184611e8d565b92915050565b7f4f6e6c792063616c6c61626c65206279206f776e657200000000000000000000600082015250565b6000611efa601683611cda565b9150611f0582611ec4565b602082019050919050565b60006020820190508181036000830152611f2981611eed565b9050919050565b7f43616e6e6f74207472616e7366657220746f2073656c66000000000000000000600082015250565b6000611f66601783611cda565b9150611f7182611f30565b602082019050919050565b60006020820190508181036000830152611f9581611f59565b9050919050565b7f4e487b7100000000000000000000000000000000000000000000000000000000600052605160045260246000fdfea26469706673582212209cf5ae958cecde79bf096a912b2ea764be93d3888500b7aab6a13b998cacf44664736f6c634300081e0033",
  "devdoc": {
    "kind": "dev",
    "methods": {},
    "version": 1
  },
  "userdoc": {
    "kind": "user",
    "methods": {
      "acceptOwnership()": {
        "notice": "Allows an ownership transfer to be completed by the recipient."
      },
      "owner()": {
        "notice": "Get the current owner"
      },
      "setCoordinator(address)": {
        "notice": "Sets the VRF Coordinator addressThis method should only be callable by the coordinator or contract owner"
      },
      "transferOwnership(address)": {
        "notice": "Allows an owner to begin transferring ownership to a new address."
      }
    },
    "version": 1
  },
  "storageLayout": {
    "storage": [
      {
        "astId": 97,
        "contract": "contracts/Raffle.sol:Raffle",
        "label": "s_owner",
        "offset": 0,
        "slot": "0",
        "type": "t_address"
      },
      {
        "astId": 99,
        "contract": "contracts/Raffle.sol:Raffle",
        "label": "s_pendingOwner",
        "offset": 0,
        "slot": "1",
        "type": "t_address"
      },
      {
        "astId": 299,
        "contract": "contracts/Raffle.sol:Raffle",
        "label": "s_vrfCoordinator",
        "offset": 0,
        "slot": "2",
        "type": "t_contract(IVRFCoordinatorV2Plus)448"
      },
      {
        "astId": 626,
        "contract": "contracts/Raffle.sol:Raffle",
        "label": "s_players",
        "offset": 0,
        "slot": "3",
        "type": "t_array(t_address_payable)dyn_storage"
      },
      {
        "astId": 642,
        "contract": "contracts/Raffle.sol:Raffle",
        "label": "s_raffleState",
        "offset": 0,
        "slot": "4",
        "type": "t_enum(RaffleState)621"
      },
      {
        "astId": 644,
        "contract": "contracts/Raffle.sol:Raffle",
        "label": "s_lastTimeStamp",
        "offset": 0,
        "slot": "5",
        "type": "t_uint256"
      },
      {
        "astId": 648,
        "contract": "contracts/Raffle.sol:Raffle",
        "label": "s_recentWinner",
        "offset": 0,
        "slot": "6",
        "type": "t_address"
      },
      {
        "astId": 650,
        "contract": "contracts/Raffle.sol:Raffle",
        "label": "i_nativePayment",
        "offset": 20,
        "slot": "6",
        "type": "t_bool"
      }
    ],
    "types": {
      "t_address": {
        "encoding": "inplace",
        "label": "address",
        "numberOfBytes": "20"
      },
      "t_address_payable": {
        "encoding": "inplace",
        "label": "address payable",
        "numberOfBytes": "20"
      },
      "t_array(t_address_payable)dyn_storage": {
        "base": "t_address_payable",
        "encoding": "dynamic_array",
        "label": "address payable[]",
        "numberOfBytes": "32"
      },
      "t_bool": {
        "encoding": "inplace",
        "label": "bool",
        "numberOfBytes": "1"
      },
      "t_contract(IVRFCoordinatorV2Plus)448": {
        "encoding": "inplace",
        "label": "contract IVRFCoordinatorV2Plus",
        "numberOfBytes": "20"
      },
      "t_enum(RaffleState)621": {
        "encoding": "inplace",
        "label": "enum Raffle.RaffleState",
        "numberOfBytes": "1"
      },
      "t_uint256": {
        "encoding": "inplace",
        "label": "uint256",
        "numberOfBytes": "32"
      }
    }
  }
}